:100000000C9434000C9449000C9449000C94490061
:100010000C9449000C9449000C9449000C9449003C
:100020000C9449000C9449000C9449000C9449002C
:100030000C9449000C9449000C9449000C9449001C
:100040000C9449000C9449000C9449000C9449000C
:100050000C9449000C9449000C9449000C944900FC
:100060000C9449000C94490011241FBECFEFD8E036
:10007000DEBFCDBF11E0A0E0B1E0E6EDF6E002C0EA
:1000800005900D92A03AB107D9F70E94F3010C94A4
:1000900069030C94000040E050E05DC021E030E0D6
:1000A000042E02C0220F331F0A94E2F728233923BB
:1000B000232B39F1FA01E050FF4F208138EF320F46
:1000C000363080F4E5B130E02850310961E070E06D
:1000D000DB0102C0AA0FBB1F2A95E2F79D012E2B60
:1000E00025B937C02830A8F5EBB161E070E0DB013D
:1000F00002C0AA0FBB1F2A95E2F79D012E2B2BB938
:1001000028C0FA01E050FF4F208138EF320F36301F
:1001100088F4E5B130E02850310961E070E0DB019E
:1001200002C0AA0FBB1F2A95E2F79D0120952E233E
:1001300025B90FC0283068F4EBB161E070E0DB0155
:1001400002C0AA0FBB1F2A95E2F79D0120952E231E
:100150002BB94F5F5F4F4A3051050CF49FCF8BB1E5
:1001600080618BB98FED9EE20197F1F700C000002E
:100170008BB18F7E8BB9089520E027C0E22FF0E08D
:10018000E050FF4F808198EF980F963078F434B1AB
:1001900090E0089741E050E0BA0102C0660F771F77
:1001A0008A95E2F7CB01832B84B90EC0883060F4C6
:1001B0003AB141E050E0BA0102C0660F771F8A955C
:1001C000E2F7CB01832B8AB92F5F2A30B8F28FE593
:1001D0009AEE0197F1F700C0000080EE90E00E94D7
:1001E0004B008FE19EE40197F1F700C0000080E32F
:1001F00090E00E944B008FE39CE90197F1F700C06B
:10020000000088E190E00E944B008FE39CE9019799
:10021000F1F700C0000084E090E00E944B008FE303
:100220009CE90197F1F700C00000089540E050E01C
:100230005DC021E030E0042E02C0220F331F0A947B
:10024000E2F728233923232B39F1FA01E050FF4F3D
:10025000208138EF320F363080F4E5B130E028509D
:10026000310961E070E0DB0102C0AA0FBB1F2A95D3
:10027000E2F79D012E2B25B937C02830A8F5EBB148
:1002800061E070E0DB0102C0AA0FBB1F2A95E2F714
:100290009D012E2B2BB928C0FA01E050FF4F208181
:1002A00038EF320F363088F4E5B130E028503109AC
:1002B00061E070E0DB0102C0AA0FBB1F2A95E2F7E4
:1002C0009D0120952E2325B90FC0283068F4EBB18D
:1002D00061E070E0DB0102C0AA0FBB1F2A95E2F7C4
:1002E0009D0120952E232BB94F5F5F4F4A3051055A
:1002F0000CF49FCF8FED9EE20197F1F700C0000054
:100300008BB180618BB9AFEDBEE21197F1F700C000
:1003100000008BB18F7E8BB9089590E0880F991FF4
:10032000880F991F81600E94160108950F931F93F3
:10033000CF93DF938C01C0E0D0E003C00E948D0119
:100340002196F801EC0FFD1F80818111F7CFDF911D
:10035000CF911F910F9108956115710541F4880F98
:10036000991F880F991F9E5F0E94160108956130A2
:10037000710549F4805C9F4F880F991F880F991F62
:100380009E5F0E941601089584E090E00E9416018D
:1003900008959C0140E050E060E472E48FE090E05A
:1003A0000E941503215031093093C5002093C400E9
:1003B00088E08093C10086E08093C2000895909108
:1003C000C00095FFFCCF8093C6000895CF93DF93C4
:1003D000EC0103C021960E94DF0188818111FACFD0
:1003E000DF91CF910895CF93DF93CDB7DEB7A89774
:1003F0000FB6F894DEBF0FBECDBF80E092EC0E9436
:10040000C9010E94BC000E94C40160E070E080E06D
:1004100090E00E94AC018AE091E00E9496012FEFEB
:1004200087EA91E6215080409040E1F700C000004B
:1004300087B1897F87B980E480937C0087E88093C7
:100440007A00ECE7F0E08081807F81608083EAE7DA
:10045000F0E080818064808380917A0086FDFCCF0B
:10046000E0907800F09079002DEBE21622E0F206A1
:1004700050F085E0E7E1F1E0DE015F9601900D923A
:100480008A95E1F709C087E0ECE1F1E0DE015F96D3
:1004900001900D928A95E1F7ECE7F0E08081807F92
:1004A00082608083EAE7F0E08081806480838091CD
:1004B0007A0086FDFCCF00917800109179004AE027
:1004C000BE016B5E7F4FC8010E94340383E291E05E
:1004D0000E94E601CE0145960E94E6018CE991E07A
:1004E0000E94E601013283E0180750F087E0EAE35A
:1004F000F1E0DE011B9601900D928A95E1F709C0AB
:1005000086E0E1E4F1E0DE011B9601900D928A9510
:10051000E1F70E94C40160E070E080E090E00E949A
:10052000AC0184E691E00E949601CE014F960E94B4
:10053000960161E070E080E090E00E94AC0180E80C
:1005400091E00E949601CE010B960E94960187E4ED
:1005500091E00E94E6014AE0BE016F5F7F4FC70154
:100560000E943403CE0101960E94E6018CE991E0DD
:100570000E94E6018DE591E00E94E601CE014F96D2
:100580000E94E6018CE991E00E94E6018EE691E08E
:100590000E94E6014AE0BE016F5F7F4FC8010E94E2
:1005A0003403CE0101960E94E6018CE991E00E949D
:1005B000E60189E791E00E94E601CE010B960E94D8
:1005C000E6018CE991E00E94E60186E891E00E9454
:1005D000E6019FEF27EA81E6915020408040E1F755
:1005E00000C000002ECFA1E21A2EAA1BBB1BFD01EA
:1005F0000DC0AA1FBB1FEE1FFF1FA217B307E40702
:10060000F50720F0A21BB30BE40BF50B661F771F59
:10061000881F991F1A9469F7609570958095909539
:100620009B01AC01BD01CF010895052E97FB1EF47F
:1006300000940E942C0357FD07D00E94F30207FC90
:1006400003D04EF40C942C03509540953095219591
:100650003F4F4F4F5F4F08959095809570956195EE
:100660007F4F8F4F9F4F0895BB274A3031F4992316
:1006700022F4BDE2909581959F4F0C944003BB27D7
:10068000FB015527AA27880F991FAA1FA41710F04E
:10069000A41B83955051B9F7A05DAA3308F0A95D5A
:1006A000A193009779F7B111B1931192CB010C94FA
:1006B0005903DC01FC01672F71917723E1F7329731
:1006C00004C07C916D9370836291AE17BF07C8F32D
:0606D0000895F894FFCF2D
:1006D600030405060708090A0B0C496E696369617C
:1006E6006E646F2E2E2E005345434F0048DA4D455B
:1006F600444F0056616C6F72206C757A2028413227
:100706002920637275646F3A20004F534355524F48
:1007160000434C41524F0048756D65646164205436
:10072600696572726120284131293A200045737447
:1007360061646F2048756D656461643A20004C758C
:100746007A20284132293A200045737461646F206B
:100756004C757A3A20002D2D2D2D2D2D2D2D2D2D3C
:100766002D2D2D2D2D2D2D2D2D2D2D2D0D0A000050
:00000001FF
